{
  "contractName": "Brand",
  "abi": [
    {
      "anonymous": false,
      "inputs": [
        {
          "indexed": false,
          "internalType": "address",
          "name": "_owner",
          "type": "address"
        },
        {
          "indexed": false,
          "internalType": "string",
          "name": "_brandName",
          "type": "string"
        }
      ],
      "name": "BrandCreated",
      "type": "event"
    },
    {
      "anonymous": false,
      "inputs": [
        {
          "indexed": false,
          "internalType": "address",
          "name": "_owner",
          "type": "address"
        },
        {
          "indexed": false,
          "internalType": "string",
          "name": "_brandName",
          "type": "string"
        }
      ],
      "name": "BrandDeleted",
      "type": "event"
    },
    {
      "inputs": [
        {
          "internalType": "uint256",
          "name": "",
          "type": "uint256"
        }
      ],
      "name": "brandOwners",
      "outputs": [
        {
          "internalType": "address",
          "name": "",
          "type": "address"
        }
      ],
      "stateMutability": "view",
      "type": "function"
    },
    {
      "inputs": [
        {
          "internalType": "address",
          "name": "",
          "type": "address"
        }
      ],
      "name": "brands",
      "outputs": [
        {
          "internalType": "string",
          "name": "brandName",
          "type": "string"
        },
        {
          "internalType": "string",
          "name": "logo",
          "type": "string"
        },
        {
          "internalType": "uint256",
          "name": "reports",
          "type": "uint256"
        }
      ],
      "stateMutability": "view",
      "type": "function"
    },
    {
      "inputs": [
        {
          "internalType": "string",
          "name": "_brandName",
          "type": "string"
        },
        {
          "internalType": "string",
          "name": "_logo",
          "type": "string"
        }
      ],
      "name": "createBrand",
      "outputs": [],
      "stateMutability": "nonpayable",
      "type": "function"
    },
    {
      "inputs": [],
      "name": "getBrandsLength",
      "outputs": [
        {
          "internalType": "uint256",
          "name": "",
          "type": "uint256"
        }
      ],
      "stateMutability": "view",
      "type": "function"
    }
  ],
  "bytecode": "0x608060405234801561001057600080fd5b50610dd0806100206000396000f3fe608060405234801561001057600080fd5b506004361061004c5760003560e01c80630349da7e146100515780635b7fd9b51461008157806393a2abdd146100b3578063e3acfcce146100d1575b600080fd5b61006b600480360381019061006691906105ad565b6100ed565b604051610078919061061b565b60405180910390f35b61009b60048036038101906100969190610662565b61012c565b6040516100aa9392919061072e565b60405180910390f35b6100bb610266565b6040516100c89190610773565b60405180910390f35b6100eb60048036038101906100e691906108c3565b610273565b005b600281815481106100fd57600080fd5b906000526020600020016000915054906101000a900473ffffffffffffffffffffffffffffffffffffffff1681565b600060205280600052604060002060009150905080600001805461014f9061096a565b80601f016020809104026020016040519081016040528092919081815260200182805461017b9061096a565b80156101c85780601f1061019d576101008083540402835291602001916101c8565b820191906000526020600020905b8154815290600101906020018083116101ab57829003601f168201915b5050505050908060010180546101dd9061096a565b80601f01602080910402602001604051908101604052809291908181526020018280546102099061096a565b80156102565780601f1061022b57610100808354040283529160200191610256565b820191906000526020600020905b81548152906001019060200180831161023957829003601f168201915b5050505050908060020154905083565b6000600280549050905090565b60008060003373ffffffffffffffffffffffffffffffffffffffff1673ffffffffffffffffffffffffffffffffffffffff16815260200190815260200160002060000180546102c19061096a565b80601f01602080910402602001604051908101604052809291908181526020018280546102ed9061096a565b801561033a5780601f1061030f5761010080835404028352916020019161033a565b820191906000526020600020905b81548152906001019060200180831161031d57829003601f168201915b505050505090506000815114610385576040517f08c379a000000000000000000000000000000000000000000000000000000000815260040161037c90610a0d565b60405180910390fd5b826000151560018260405161039a9190610a69565b908152602001604051809103902060009054906101000a900460ff161515146103f8576040517f08c379a00000000000000000000000000000000000000000000000000000000081526004016103ef90610acc565b60405180910390fd5b6002339080600181540180825580915050600190039060005260206000200160009091909190916101000a81548173ffffffffffffffffffffffffffffffffffffffff021916908373ffffffffffffffffffffffffffffffffffffffff160217905550604051806060016040528085815260200184815260200160008152506000803373ffffffffffffffffffffffffffffffffffffffff1673ffffffffffffffffffffffffffffffffffffffff16815260200190815260200160002060008201518160000190816104ca9190610c98565b5060208201518160010190816104e09190610c98565b5060408201518160020155905050600180856040516104ff9190610a69565b908152602001604051809103902060006101000a81548160ff0219169083151502179055507fe6fbc010725b0b71430339ac30f684b21c0b685f04c99a05b107206a8c63a1fa3385604051610555929190610d6a565b60405180910390a150505050565b6000604051905090565b600080fd5b600080fd5b6000819050919050565b61058a81610577565b811461059557600080fd5b50565b6000813590506105a781610581565b92915050565b6000602082840312156105c3576105c261056d565b5b60006105d184828501610598565b91505092915050565b600073ffffffffffffffffffffffffffffffffffffffff82169050919050565b6000610605826105da565b9050919050565b610615816105fa565b82525050565b6000602082019050610630600083018461060c565b92915050565b61063f816105fa565b811461064a57600080fd5b50565b60008135905061065c81610636565b92915050565b6000602082840312156106785761067761056d565b5b60006106868482850161064d565b91505092915050565b600081519050919050565b600082825260208201905092915050565b60005b838110156106c95780820151818401526020810190506106ae565b60008484015250505050565b6000601f19601f8301169050919050565b60006106f18261068f565b6106fb818561069a565b935061070b8185602086016106ab565b610714816106d5565b840191505092915050565b61072881610577565b82525050565b6000606082019050818103600083015261074881866106e6565b9050818103602083015261075c81856106e6565b905061076b604083018461071f565b949350505050565b6000602082019050610788600083018461071f565b92915050565b600080fd5b600080fd5b7f4e487b7100000000000000000000000000000000000000000000000000000000600052604160045260246000fd5b6107d0826106d5565b810181811067ffffffffffffffff821117156107ef576107ee610798565b5b80604052505050565b6000610802610563565b905061080e82826107c7565b919050565b600067ffffffffffffffff82111561082e5761082d610798565b5b610837826106d5565b9050602081019050919050565b82818337600083830152505050565b600061086661086184610813565b6107f8565b90508281526020810184848401111561088257610881610793565b5b61088d848285610844565b509392505050565b600082601f8301126108aa576108a961078e565b5b81356108ba848260208601610853565b91505092915050565b600080604083850312156108da576108d961056d565b5b600083013567ffffffffffffffff8111156108f8576108f7610572565b5b61090485828601610895565b925050602083013567ffffffffffffffff81111561092557610924610572565b5b61093185828601610895565b9150509250929050565b7f4e487b7100000000000000000000000000000000000000000000000000000000600052602260045260246000fd5b6000600282049050600182168061098257607f821691505b6020821081036109955761099461093b565b5b50919050565b7f4f776e6572206861732061206272616e64206f6e207468652073616d6520616360008201527f636f756e74000000000000000000000000000000000000000000000000000000602082015250565b60006109f760258361069a565b9150610a028261099b565b604082019050919050565b60006020820190508181036000830152610a26816109ea565b9050919050565b600081905092915050565b6000610a438261068f565b610a4d8185610a2d565b9350610a5d8185602086016106ab565b80840191505092915050565b6000610a758284610a38565b915081905092915050565b7f4272616e64204e616d6520416c72656164792045786973747300000000000000600082015250565b6000610ab660198361069a565b9150610ac182610a80565b602082019050919050565b60006020820190508181036000830152610ae581610aa9565b9050919050565b60008190508160005260206000209050919050565b60006020601f8301049050919050565b600082821b905092915050565b600060088302610b4e7fffffffffffffffffffffffffffffffffffffffffffffffffffffffffffffffff82610b11565b610b588683610b11565b95508019841693508086168417925050509392505050565b6000819050919050565b6000610b95610b90610b8b84610577565b610b70565b610577565b9050919050565b6000819050919050565b610baf83610b7a565b610bc3610bbb82610b9c565b848454610b1e565b825550505050565b600090565b610bd8610bcb565b610be3818484610ba6565b505050565b5b81811015610c0757610bfc600082610bd0565b600181019050610be9565b5050565b601f821115610c4c57610c1d81610aec565b610c2684610b01565b81016020851015610c35578190505b610c49610c4185610b01565b830182610be8565b50505b505050565b600082821c905092915050565b6000610c6f60001984600802610c51565b1980831691505092915050565b6000610c888383610c5e565b9150826002028217905092915050565b610ca18261068f565b67ffffffffffffffff811115610cba57610cb9610798565b5b610cc4825461096a565b610ccf828285610c0b565b600060209050601f831160018114610d025760008415610cf0578287015190505b610cfa8582610c7c565b865550610d62565b601f198416610d1086610aec565b60005b82811015610d3857848901518255600182019150602085019450602081019050610d13565b86831015610d555784890151610d51601f891682610c5e565b8355505b6001600288020188555050505b505050505050565b6000604082019050610d7f600083018561060c565b8181036020830152610d9181846106e6565b9050939250505056fea26469706673582212207b245ee090d657733de1ecd40ffc9cf90986cda77194c045a18cdc4101877fa964736f6c63430008130033",
  "immutableReferences": {},
  "source": "// SPDX-License-Identifier: MIT\r\npragma solidity ^0.8.0;\r\n\r\ncontract Brand {\r\n    struct Company {\r\n        string brandName;\r\n        string logo;\r\n        uint256 reports;\r\n    }\r\n\r\n    mapping(address => Company) public brands;\r\n    mapping(string => bool) private exists;\r\n    address[] public brandOwners;\r\n\r\n    event BrandCreated(address _owner, string _brandName);\r\n    event BrandDeleted(address _owner, string _brandName);\r\n\r\n    modifier checkBrand(address _owner) {\r\n        bytes memory temp = bytes(brands[_owner].brandName);\r\n        require(temp.length > 0, 'Not a Registered Brand');\r\n        _;\r\n    }\r\n\r\n    modifier checkDoubleBrands() {\r\n        bytes memory temp = bytes(brands[msg.sender].brandName);\r\n        require(temp.length == 0, 'Owner has a brand on the same account');\r\n        _;\r\n    }\r\n\r\n    modifier checkBrandName(string memory _brandName) {\r\n        require(exists[_brandName] == false, 'Brand Name Already Exists');\r\n        _;\r\n    }\r\n\r\n    function createBrand(string memory _brandName, string memory _logo)\r\n        public\r\n        checkDoubleBrands\r\n        checkBrandName(_brandName)\r\n    {\r\n        brandOwners.push(msg.sender);\r\n        brands[msg.sender] = Company(_brandName, _logo, 0);\r\n        exists[_brandName] = true;\r\n        emit BrandCreated(msg.sender, _brandName);\r\n    }\r\n\r\n    function deleteBrand(address _owner) internal {\r\n        delete exists[brands[_owner].brandName];\r\n        emit BrandDeleted(_owner, brands[_owner].brandName);\r\n    }\r\n\r\n    function getBrandsLength() public view returns (uint256) {\r\n        return brandOwners.length;\r\n    }\r\n}\r\n",
  "sourcePath": "C:\\Users\\Madhukesh Singh\\Desktop\\BuySafe\\contracts\\Brand.sol",
  "compiler": {
    "name": "solc",
    "version": "0.8.19+commit.7dd6d404.Emscripten.clang"
  },
  "schemaVersion": "3.4.13",
  "updatedAt": "2023-03-27T08:25:54.961Z",
  "devdoc": {
    "kind": "dev",
    "methods": {},
    "version": 1
  },
  "userdoc": {
    "kind": "user",
    "methods": {},
    "version": 1
  }
}