{
  "contractName": "Market",
  "abi": [
    {
      "anonymous": false,
      "inputs": [
        {
          "indexed": false,
          "internalType": "address",
          "name": "_owner",
          "type": "address"
        },
        {
          "indexed": false,
          "internalType": "string",
          "name": "_brandName",
          "type": "string"
        }
      ],
      "name": "BrandCreated",
      "type": "event"
    },
    {
      "anonymous": false,
      "inputs": [
        {
          "indexed": false,
          "internalType": "address",
          "name": "_owner",
          "type": "address"
        },
        {
          "indexed": false,
          "internalType": "string",
          "name": "_brandName",
          "type": "string"
        }
      ],
      "name": "BrandDeleted",
      "type": "event"
    },
    {
      "anonymous": false,
      "inputs": [
        {
          "indexed": false,
          "internalType": "address",
          "name": "_manufacturer",
          "type": "address"
        },
        {
          "indexed": true,
          "internalType": "uint256",
          "name": "_productId",
          "type": "uint256"
        },
        {
          "indexed": false,
          "internalType": "uint256",
          "name": "_time",
          "type": "uint256"
        }
      ],
      "name": "ProductCreated",
      "type": "event"
    },
    {
      "anonymous": false,
      "inputs": [
        {
          "indexed": false,
          "internalType": "address",
          "name": "_brandOwner",
          "type": "address"
        },
        {
          "indexed": false,
          "internalType": "address",
          "name": "_revokedBy",
          "type": "address"
        }
      ],
      "name": "brandReportRevoved",
      "type": "event"
    },
    {
      "anonymous": false,
      "inputs": [
        {
          "indexed": false,
          "internalType": "address",
          "name": "_brandOwner",
          "type": "address"
        },
        {
          "indexed": false,
          "internalType": "address",
          "name": "_reportedBy",
          "type": "address"
        }
      ],
      "name": "brandReported",
      "type": "event"
    },
    {
      "anonymous": false,
      "inputs": [
        {
          "indexed": true,
          "internalType": "uint256",
          "name": "_productId",
          "type": "uint256"
        },
        {
          "indexed": false,
          "internalType": "address",
          "name": "_from",
          "type": "address"
        },
        {
          "indexed": false,
          "internalType": "address",
          "name": "_to",
          "type": "address"
        },
        {
          "indexed": false,
          "internalType": "uint256",
          "name": "_price",
          "type": "uint256"
        },
        {
          "indexed": false,
          "internalType": "uint256",
          "name": "_time",
          "type": "uint256"
        }
      ],
      "name": "buySuccess",
      "type": "event"
    },
    {
      "anonymous": false,
      "inputs": [
        {
          "indexed": false,
          "internalType": "uint256",
          "name": "_productId",
          "type": "uint256"
        },
        {
          "indexed": false,
          "internalType": "uint256",
          "name": "_newPrice",
          "type": "uint256"
        }
      ],
      "name": "priceUpdated",
      "type": "event"
    },
    {
      "anonymous": false,
      "inputs": [
        {
          "indexed": false,
          "internalType": "uint256",
          "name": "_productId",
          "type": "uint256"
        }
      ],
      "name": "saleClosed",
      "type": "event"
    },
    {
      "anonymous": false,
      "inputs": [
        {
          "indexed": false,
          "internalType": "uint256",
          "name": "_productId",
          "type": "uint256"
        }
      ],
      "name": "saleStarted",
      "type": "event"
    },
    {
      "inputs": [
        {
          "internalType": "uint256",
          "name": "",
          "type": "uint256"
        }
      ],
      "name": "brandOwners",
      "outputs": [
        {
          "internalType": "address",
          "name": "",
          "type": "address"
        }
      ],
      "stateMutability": "view",
      "type": "function"
    },
    {
      "inputs": [
        {
          "internalType": "address",
          "name": "",
          "type": "address"
        }
      ],
      "name": "brands",
      "outputs": [
        {
          "internalType": "string",
          "name": "brandName",
          "type": "string"
        },
        {
          "internalType": "string",
          "name": "logo",
          "type": "string"
        },
        {
          "internalType": "uint256",
          "name": "reports",
          "type": "uint256"
        }
      ],
      "stateMutability": "view",
      "type": "function"
    },
    {
      "inputs": [
        {
          "internalType": "address",
          "name": "_brandOwner",
          "type": "address"
        },
        {
          "internalType": "address",
          "name": "_caller",
          "type": "address"
        }
      ],
      "name": "canIReport",
      "outputs": [
        {
          "internalType": "bool",
          "name": "canI",
          "type": "bool"
        },
        {
          "internalType": "string",
          "name": "reason",
          "type": "string"
        }
      ],
      "stateMutability": "view",
      "type": "function"
    },
    {
      "inputs": [
        {
          "internalType": "string",
          "name": "_brandName",
          "type": "string"
        },
        {
          "internalType": "string",
          "name": "_logo",
          "type": "string"
        }
      ],
      "name": "createBrand",
      "outputs": [],
      "stateMutability": "nonpayable",
      "type": "function"
    },
    {
      "inputs": [
        {
          "internalType": "uint256",
          "name": "_mfg",
          "type": "uint256"
        },
        {
          "internalType": "string",
          "name": "_model",
          "type": "string"
        },
        {
          "internalType": "uint256",
          "name": "_price",
          "type": "uint256"
        },
        {
          "internalType": "uint256",
          "name": "_mrp",
          "type": "uint256"
        }
      ],
      "name": "createProduct",
      "outputs": [],
      "stateMutability": "nonpayable",
      "type": "function"
    },
    {
      "inputs": [],
      "name": "getBrandsLength",
      "outputs": [
        {
          "internalType": "uint256",
          "name": "",
          "type": "uint256"
        }
      ],
      "stateMutability": "view",
      "type": "function"
    },
    {
      "inputs": [],
      "name": "productCount",
      "outputs": [
        {
          "internalType": "uint256",
          "name": "",
          "type": "uint256"
        }
      ],
      "stateMutability": "view",
      "type": "function"
    },
    {
      "inputs": [
        {
          "internalType": "uint256",
          "name": "",
          "type": "uint256"
        }
      ],
      "name": "productToOwner",
      "outputs": [
        {
          "internalType": "address",
          "name": "",
          "type": "address"
        }
      ],
      "stateMutability": "view",
      "type": "function"
    },
    {
      "inputs": [
        {
          "internalType": "uint256",
          "name": "",
          "type": "uint256"
        }
      ],
      "name": "products",
      "outputs": [
        {
          "internalType": "address",
          "name": "manufacturer",
          "type": "address"
        },
        {
          "internalType": "string",
          "name": "model",
          "type": "string"
        },
        {
          "internalType": "uint256",
          "name": "mfg",
          "type": "uint256"
        },
        {
          "internalType": "uint256",
          "name": "price",
          "type": "uint256"
        },
        {
          "internalType": "uint256",
          "name": "mrp",
          "type": "uint256"
        },
        {
          "internalType": "bool",
          "name": "forSale",
          "type": "bool"
        }
      ],
      "stateMutability": "view",
      "type": "function"
    },
    {
      "inputs": [
        {
          "internalType": "address",
          "name": "_brandOwner",
          "type": "address"
        }
      ],
      "name": "reportBrand",
      "outputs": [],
      "stateMutability": "nonpayable",
      "type": "function"
    },
    {
      "inputs": [
        {
          "internalType": "address",
          "name": "",
          "type": "address"
        },
        {
          "internalType": "address",
          "name": "",
          "type": "address"
        }
      ],
      "name": "userBrand",
      "outputs": [
        {
          "internalType": "uint256",
          "name": "productCount",
          "type": "uint256"
        },
        {
          "internalType": "bool",
          "name": "hasReported",
          "type": "bool"
        }
      ],
      "stateMutability": "view",
      "type": "function"
    },
    {
      "inputs": [
        {
          "internalType": "uint256",
          "name": "_productId",
          "type": "uint256"
        },
        {
          "internalType": "uint256",
          "name": "_price",
          "type": "uint256"
        }
      ],
      "name": "setPrice",
      "outputs": [],
      "stateMutability": "nonpayable",
      "type": "function"
    },
    {
      "inputs": [
        {
          "internalType": "uint256",
          "name": "_productId",
          "type": "uint256"
        }
      ],
      "name": "openForSale",
      "outputs": [],
      "stateMutability": "nonpayable",
      "type": "function"
    },
    {
      "inputs": [
        {
          "internalType": "uint256",
          "name": "_productId",
          "type": "uint256"
        }
      ],
      "name": "closeForSale",
      "outputs": [],
      "stateMutability": "nonpayable",
      "type": "function"
    },
    {
      "inputs": [
        {
          "internalType": "uint256",
          "name": "_productId",
          "type": "uint256"
        }
      ],
      "name": "buyProduct",
      "outputs": [],
      "stateMutability": "payable",
      "type": "function"
    }
  ],
  "bytecode": "0x608060405234801561001057600080fd5b50612f56806100206000396000f3fe6080604052600436106100e85760003560e01c80638eb05f881161008a578063e0f6ef8711610059578063e0f6ef8714610326578063e3acfcce14610351578063f4a44d2d1461037a578063f7d97577146103a3576100e8565b80638eb05f881461026b57806393a2abdd14610294578063b3cc8cd9146102bf578063ca86c637146102e8576100e8565b8063420fadc8116100c6578063420fadc8146101915780635b7fd9b5146101ce5780637acc0b201461020d5780638642269e1461024f576100e8565b80630349da7e146100ed57806315f514161461012a57806316cba8ec14610153575b600080fd5b3480156100f957600080fd5b50610114600480360381019061010f9190611dd0565b6103cc565b6040516101219190611e3e565b60405180910390f35b34801561013657600080fd5b50610151600480360381019061014c9190611dd0565b61040b565b005b34801561015f57600080fd5b5061017a60048036038101906101759190611e85565b610526565b604051610188929190611eef565b60405180910390f35b34801561019d57600080fd5b506101b860048036038101906101b39190611dd0565b610564565b6040516101c59190611e3e565b60405180910390f35b3480156101da57600080fd5b506101f560048036038101906101f09190611f18565b610597565b60405161020493929190611fd5565b60405180910390f35b34801561021957600080fd5b50610234600480360381019061022f9190611dd0565b6106d1565b6040516102469695949392919061201a565b60405180910390f35b61026960048036038101906102649190611dd0565b6107d2565b005b34801561027757600080fd5b50610292600480360381019061028d9190611f18565b610dc6565b005b3480156102a057600080fd5b506102a96110dc565b6040516102b69190612082565b60405180910390f35b3480156102cb57600080fd5b506102e660048036038101906102e19190611dd0565b6110e9565b005b3480156102f457600080fd5b5061030f600480360381019061030a9190611e85565b611204565b60405161031d92919061209d565b60405180910390f35b34801561033257600080fd5b5061033b6113ed565b6040516103489190612082565b60405180910390f35b34801561035d57600080fd5b5061037860048036038101906103739190612202565b6113fa565b005b34801561038657600080fd5b506103a1600480360381019061039c919061227a565b6116ea565b005b3480156103af57600080fd5b506103ca60048036038101906103c591906122fd565b611a92565b005b600281815481106103dc57600080fd5b906000526020600020016000915054906101000a900473ffffffffffffffffffffffffffffffffffffffff1681565b803373ffffffffffffffffffffffffffffffffffffffff166005600083815260200190815260200160002060009054906101000a900473ffffffffffffffffffffffffffffffffffffffff1673ffffffffffffffffffffffffffffffffffffffff16146104ad576040517f08c379a00000000000000000000000000000000000000000000000000000000081526004016104a4906123af565b60405180910390fd5b6001600483815481106104c3576104c26123cf565b5b906000526020600020906006020160050160006101000a81548160ff0219169083151502179055507f1dc13bd033e49239661ba80e30ae191b1c31c79277b531e88246c7517971b85d8260405161051a9190612082565b60405180910390a15050565b6003602052816000526040600020602052806000526040600020600091509150508060000154908060010160009054906101000a900460ff16905082565b60056020528060005260406000206000915054906101000a900473ffffffffffffffffffffffffffffffffffffffff1681565b60006020528060005260406000206000915090508060000180546105ba9061242d565b80601f01602080910402602001604051908101604052809291908181526020018280546105e69061242d565b80156106335780601f1061060857610100808354040283529160200191610633565b820191906000526020600020905b81548152906001019060200180831161061657829003601f168201915b5050505050908060010180546106489061242d565b80601f01602080910402602001604051908101604052809291908181526020018280546106749061242d565b80156106c15780601f10610696576101008083540402835291602001916106c1565b820191906000526020600020905b8154815290600101906020018083116106a457829003601f168201915b5050505050908060020154905083565b600481815481106106e157600080fd5b90600052602060002090600602016000915090508060000160009054906101000a900473ffffffffffffffffffffffffffffffffffffffff169080600101805461072a9061242d565b80601f01602080910402602001604051908101604052809291908181526020018280546107569061242d565b80156107a35780601f10610778576101008083540402835291602001916107a3565b820191906000526020600020905b81548152906001019060200180831161078657829003601f168201915b5050505050908060020154908060030154908060040154908060050160009054906101000a900460ff16905086565b8060011515600482815481106107eb576107ea6123cf565b5b906000526020600020906006020160050160009054906101000a900460ff1615151461084c576040517f08c379a0000000000000000000000000000000000000000000000000000000008152600401610843906124d0565b60405180910390fd5b8160048181548110610861576108606123cf565b5b9060005260206000209060060201600301543410156108b5576040517f08c379a00000000000000000000000000000000000000000000000000000000081526004016108ac9061253c565b60405180910390fd5b60006005600085815260200190815260200160002060009054906101000a900473ffffffffffffffffffffffffffffffffffffffff16905060003390508173ffffffffffffffffffffffffffffffffffffffff166108fc600487815481106109205761091f6123cf565b5b9060005260206000209060060201600301549081150290604051600060405180830381858888f1935050505015801561095d573d6000803e3d6000fd5b508073ffffffffffffffffffffffffffffffffffffffff166108fc6004878154811061098c5761098b6123cf565b5b906000526020600020906006020160030154346109a9919061258b565b9081150290604051600060405180830381858888f193505050501580156109d4573d6000803e3d6000fd5b50336005600087815260200190815260200160002060006101000a81548173ffffffffffffffffffffffffffffffffffffffff021916908373ffffffffffffffffffffffffffffffffffffffff160217905550600060048681548110610a3d57610a3c6123cf565b5b906000526020600020906006020160000160009054906101000a900473ffffffffffffffffffffffffffffffffffffffff169050600360008473ffffffffffffffffffffffffffffffffffffffff1673ffffffffffffffffffffffffffffffffffffffff16815260200190815260200160002060008273ffffffffffffffffffffffffffffffffffffffff1673ffffffffffffffffffffffffffffffffffffffff1681526020019081526020016000206000016000815480929190610b01906125bf565b9190505550600360008373ffffffffffffffffffffffffffffffffffffffff1673ffffffffffffffffffffffffffffffffffffffff16815260200190815260200160002060008273ffffffffffffffffffffffffffffffffffffffff1673ffffffffffffffffffffffffffffffffffffffff1681526020019081526020016000206000016000815480929190610b96906125e8565b91905055506000600360008573ffffffffffffffffffffffffffffffffffffffff1673ffffffffffffffffffffffffffffffffffffffff16815260200190815260200160002060008373ffffffffffffffffffffffffffffffffffffffff1673ffffffffffffffffffffffffffffffffffffffff16815260200190815260200160002060000154148015610cb35750600360008473ffffffffffffffffffffffffffffffffffffffff1673ffffffffffffffffffffffffffffffffffffffff16815260200190815260200160002060008273ffffffffffffffffffffffffffffffffffffffff1673ffffffffffffffffffffffffffffffffffffffff16815260200190815260200160002060010160009054906101000a900460ff165b15610d5b576000600360008573ffffffffffffffffffffffffffffffffffffffff1673ffffffffffffffffffffffffffffffffffffffff16815260200190815260200160002060008373ffffffffffffffffffffffffffffffffffffffff1673ffffffffffffffffffffffffffffffffffffffff16815260200190815260200160002060010160006101000a81548160ff021916908315150217905550610d5a8184611c08565b5b857fbfea7f3dffa46bfb8e5718e1dc00a480ee6575f0654bb8e00184518e24435500848460048a81548110610d9357610d926123cf565b5b90600052602060002090600602016003015442604051610db6949392919061268f565b60405180910390a2505050505050565b806000600360003373ffffffffffffffffffffffffffffffffffffffff1673ffffffffffffffffffffffffffffffffffffffff16815260200190815260200160002060008373ffffffffffffffffffffffffffffffffffffffff1673ffffffffffffffffffffffffffffffffffffffff1681526020019081526020016000206000015411610e89576040517f08c379a0000000000000000000000000000000000000000000000000000000008152600401610e809061276c565b60405180910390fd5b60001515600360003373ffffffffffffffffffffffffffffffffffffffff1673ffffffffffffffffffffffffffffffffffffffff16815260200190815260200160002060008373ffffffffffffffffffffffffffffffffffffffff1673ffffffffffffffffffffffffffffffffffffffff16815260200190815260200160002060010160009054906101000a900460ff16151514610f5c576040517f08c379a0000000000000000000000000000000000000000000000000000000008152600401610f53906127d8565b60405180910390fd5b6001600360003373ffffffffffffffffffffffffffffffffffffffff1673ffffffffffffffffffffffffffffffffffffffff16815260200190815260200160002060008473ffffffffffffffffffffffffffffffffffffffff1673ffffffffffffffffffffffffffffffffffffffff16815260200190815260200160002060010160006101000a81548160ff0219169083151502179055506000808373ffffffffffffffffffffffffffffffffffffffff1673ffffffffffffffffffffffffffffffffffffffff1681526020019081526020016000206002016000815480929190611046906125e8565b919050555060026000808473ffffffffffffffffffffffffffffffffffffffff1673ffffffffffffffffffffffffffffffffffffffff16815260200190815260200160002060020154111561109f5761109e82611c9c565b5b7fe7747c1468ca696f832f20cb4db5f557554916e9035754b5b071c3b04a4decb882336040516110d09291906127f8565b60405180910390a15050565b6000600280549050905090565b803373ffffffffffffffffffffffffffffffffffffffff166005600083815260200190815260200160002060009054906101000a900473ffffffffffffffffffffffffffffffffffffffff1673ffffffffffffffffffffffffffffffffffffffff161461118b576040517f08c379a0000000000000000000000000000000000000000000000000000000008152600401611182906123af565b60405180910390fd5b6000600483815481106111a1576111a06123cf565b5b906000526020600020906006020160050160006101000a81548160ff0219169083151502179055507f6a57706098266f632517e186f276bc17d3bb111568f063b9eb6719717256f835826040516111f89190612082565b60405180910390a15050565b600060606000600360008573ffffffffffffffffffffffffffffffffffffffff1673ffffffffffffffffffffffffffffffffffffffff16815260200190815260200160002060008673ffffffffffffffffffffffffffffffffffffffff1673ffffffffffffffffffffffffffffffffffffffff16815260200190815260200160002060000154036112d05760006040518060400160405280600e81526020017f4669727374205075726368617365000000000000000000000000000000000000815250915091506113e6565b60011515600360008573ffffffffffffffffffffffffffffffffffffffff1673ffffffffffffffffffffffffffffffffffffffff16815260200190815260200160002060008673ffffffffffffffffffffffffffffffffffffffff1673ffffffffffffffffffffffffffffffffffffffff16815260200190815260200160002060010160009054906101000a900460ff161515036113a95760006040518060400160405280601081526020017f416c7265616479205265706f7274656400000000000000000000000000000000815250915091506113e6565b60016040518060400160405280600681526020017f5265706f72740000000000000000000000000000000000000000000000000000815250915091505b9250929050565b6000600480549050905090565b60008060003373ffffffffffffffffffffffffffffffffffffffff1673ffffffffffffffffffffffffffffffffffffffff16815260200190815260200160002060000180546114489061242d565b80601f01602080910402602001604051908101604052809291908181526020018280546114749061242d565b80156114c15780601f10611496576101008083540402835291602001916114c1565b820191906000526020600020905b8154815290600101906020018083116114a457829003601f168201915b50505050509050600081511461150c576040517f08c379a000000000000000000000000000000000000000000000000000000000815260040161150390612893565b60405180910390fd5b826000151560018260405161152191906128ef565b908152602001604051809103902060009054906101000a900460ff1615151461157f576040517f08c379a000000000000000000000000000000000000000000000000000000000815260040161157690612952565b60405180910390fd5b6002339080600181540180825580915050600190039060005260206000200160009091909190916101000a81548173ffffffffffffffffffffffffffffffffffffffff021916908373ffffffffffffffffffffffffffffffffffffffff160217905550604051806060016040528085815260200184815260200160008152506000803373ffffffffffffffffffffffffffffffffffffffff1673ffffffffffffffffffffffffffffffffffffffff16815260200190815260200160002060008201518160000190816116519190612b14565b5060208201518160010190816116679190612b14565b50604082015181600201559050506001808560405161168691906128ef565b908152602001604051809103902060006101000a81548160ff0219169083151502179055507fe6fbc010725b0b71430339ac30f684b21c0b685f04c99a05b107206a8c63a1fa33856040516116dc929190612be6565b60405180910390a150505050565b3360008060008373ffffffffffffffffffffffffffffffffffffffff1673ffffffffffffffffffffffffffffffffffffffff16815260200190815260200160002060000180546117399061242d565b80601f01602080910402602001604051908101604052809291908181526020018280546117659061242d565b80156117b25780601f10611787576101008083540402835291602001916117b2565b820191906000526020600020905b81548152906001019060200180831161179557829003601f168201915b5050505050905060008151116117fd576040517f08c379a00000000000000000000000000000000000000000000000000000000081526004016117f490612c62565b60405180910390fd5b838380821115611842576040517f08c379a000000000000000000000000000000000000000000000000000000000815260040161183990612cf4565b60405180910390fd5b60046040518060c001604052803373ffffffffffffffffffffffffffffffffffffffff1681526020018981526020018a815260200188815260200187815260200160011515815250908060018154018082558091505060019003906000526020600020906006020160009091909190915060008201518160000160006101000a81548173ffffffffffffffffffffffffffffffffffffffff021916908373ffffffffffffffffffffffffffffffffffffffff160217905550602082015181600101908161190f9190612b14565b5060408201518160020155606082015181600301556080820151816004015560a08201518160050160006101000a81548160ff021916908315150217905550505060006001600480549050611964919061258b565b9050336005600083815260200190815260200160002060006101000a81548173ffffffffffffffffffffffffffffffffffffffff021916908373ffffffffffffffffffffffffffffffffffffffff160217905550600360003373ffffffffffffffffffffffffffffffffffffffff1673ffffffffffffffffffffffffffffffffffffffff16815260200190815260200160002060003373ffffffffffffffffffffffffffffffffffffffff1673ffffffffffffffffffffffffffffffffffffffff1681526020019081526020016000206000016000815480929190611a48906125e8565b9190505550807fa119589d8d9d80f8c531968021b54e16e57f459b696c6e16dc14f622a373061b3342604051611a7f929190612d14565b60405180910390a2505050505050505050565b813373ffffffffffffffffffffffffffffffffffffffff166005600083815260200190815260200160002060009054906101000a900473ffffffffffffffffffffffffffffffffffffffff1673ffffffffffffffffffffffffffffffffffffffff1614611b34576040517f08c379a0000000000000000000000000000000000000000000000000000000008152600401611b2b906123af565b60405180910390fd5b828260048281548110611b4a57611b496123cf565b5b906000526020600020906006020160040154811115611b9e576040517f08c379a0000000000000000000000000000000000000000000000000000000008152600401611b9590612d89565b60405180910390fd5b8360048681548110611bb357611bb26123cf565b5b9060005260206000209060060201600301819055507f7a3325b9d11ddc18edd3dff130141b6ce951061520c6b933a604bf701f3d80528585604051611bf9929190612da9565b60405180910390a15050505050565b6000808373ffffffffffffffffffffffffffffffffffffffff1673ffffffffffffffffffffffffffffffffffffffff1681526020019081526020016000206002016000815480929190611c5a906125bf565b91905055507f597f07ee0985d333537a5ddb478b64c0de14188b687ed8225a836d11b55707f88282604051611c909291906127f8565b60405180910390a15050565b60016000808373ffffffffffffffffffffffffffffffffffffffff1673ffffffffffffffffffffffffffffffffffffffff168152602001908152602001600020600001604051611cec9190612e55565b908152602001604051809103902060006101000a81549060ff02191690557f8a36be64cb775ce9b5064fb7f6e835793bfff4f4a873dee5d16268132033852f816000808473ffffffffffffffffffffffffffffffffffffffff1673ffffffffffffffffffffffffffffffffffffffff168152602001908152602001600020600001604051611d7b929190612ef0565b60405180910390a150565b6000604051905090565b600080fd5b600080fd5b6000819050919050565b611dad81611d9a565b8114611db857600080fd5b50565b600081359050611dca81611da4565b92915050565b600060208284031215611de657611de5611d90565b5b6000611df484828501611dbb565b91505092915050565b600073ffffffffffffffffffffffffffffffffffffffff82169050919050565b6000611e2882611dfd565b9050919050565b611e3881611e1d565b82525050565b6000602082019050611e536000830184611e2f565b92915050565b611e6281611e1d565b8114611e6d57600080fd5b50565b600081359050611e7f81611e59565b92915050565b60008060408385031215611e9c57611e9b611d90565b5b6000611eaa85828601611e70565b9250506020611ebb85828601611e70565b9150509250929050565b611ece81611d9a565b82525050565b60008115159050919050565b611ee981611ed4565b82525050565b6000604082019050611f046000830185611ec5565b611f116020830184611ee0565b9392505050565b600060208284031215611f2e57611f2d611d90565b5b6000611f3c84828501611e70565b91505092915050565b600081519050919050565b600082825260208201905092915050565b60005b83811015611f7f578082015181840152602081019050611f64565b60008484015250505050565b6000601f19601f8301169050919050565b6000611fa782611f45565b611fb18185611f50565b9350611fc1818560208601611f61565b611fca81611f8b565b840191505092915050565b60006060820190508181036000830152611fef8186611f9c565b905081810360208301526120038185611f9c565b90506120126040830184611ec5565b949350505050565b600060c08201905061202f6000830189611e2f565b81810360208301526120418188611f9c565b90506120506040830187611ec5565b61205d6060830186611ec5565b61206a6080830185611ec5565b61207760a0830184611ee0565b979650505050505050565b60006020820190506120976000830184611ec5565b92915050565b60006040820190506120b26000830185611ee0565b81810360208301526120c48184611f9c565b90509392505050565b600080fd5b600080fd5b7f4e487b7100000000000000000000000000000000000000000000000000000000600052604160045260246000fd5b61210f82611f8b565b810181811067ffffffffffffffff8211171561212e5761212d6120d7565b5b80604052505050565b6000612141611d86565b905061214d8282612106565b919050565b600067ffffffffffffffff82111561216d5761216c6120d7565b5b61217682611f8b565b9050602081019050919050565b82818337600083830152505050565b60006121a56121a084612152565b612137565b9050828152602081018484840111156121c1576121c06120d2565b5b6121cc848285612183565b509392505050565b600082601f8301126121e9576121e86120cd565b5b81356121f9848260208601612192565b91505092915050565b6000806040838503121561221957612218611d90565b5b600083013567ffffffffffffffff81111561223757612236611d95565b5b612243858286016121d4565b925050602083013567ffffffffffffffff81111561226457612263611d95565b5b612270858286016121d4565b9150509250929050565b6000806000806080858703121561229457612293611d90565b5b60006122a287828801611dbb565b945050602085013567ffffffffffffffff8111156122c3576122c2611d95565b5b6122cf878288016121d4565b93505060406122e087828801611dbb565b92505060606122f187828801611dbb565b91505092959194509250565b6000806040838503121561231457612313611d90565b5b600061232285828601611dbb565b925050602061233385828601611dbb565b9150509250929050565b7f4f6e6c792050726f64756374204f776e65722063616e20706572666f726d207460008201527f686973206f7065726174696f6e00000000000000000000000000000000000000602082015250565b6000612399602d83611f50565b91506123a48261233d565b604082019050919050565b600060208201905081810360008301526123c88161238c565b9050919050565b7f4e487b7100000000000000000000000000000000000000000000000000000000600052603260045260246000fd5b7f4e487b7100000000000000000000000000000000000000000000000000000000600052602260045260246000fd5b6000600282049050600182168061244557607f821691505b602082108103612458576124576123fe565b5b50919050565b7f5468652070726f64756374206973206e6f7420617661696c61626c6520666f7260008201527f2073616c65000000000000000000000000000000000000000000000000000000602082015250565b60006124ba602583611f50565b91506124c58261245e565b604082019050919050565b600060208201905081810360008301526124e9816124ad565b9050919050565b7f54686520616d6f756e74206973206e6f742073756666696369656e7400000000600082015250565b6000612526601c83611f50565b9150612531826124f0565b602082019050919050565b6000602082019050818103600083015261255581612519565b9050919050565b7f4e487b7100000000000000000000000000000000000000000000000000000000600052601160045260246000fd5b600061259682611d9a565b91506125a183611d9a565b92508282039050818111156125b9576125b861255c565b5b92915050565b60006125ca82611d9a565b9150600082036125dd576125dc61255c565b5b600182039050919050565b60006125f382611d9a565b91507fffffffffffffffffffffffffffffffffffffffffffffffffffffffffffffffff82036126255761262461255c565b5b600182019050919050565b6000819050919050565b600061265561265061264b84611dfd565b612630565b611dfd565b9050919050565b60006126678261263a565b9050919050565b60006126798261265c565b9050919050565b6126898161266e565b82525050565b60006080820190506126a46000830187612680565b6126b16020830186612680565b6126be6040830185611ec5565b6126cb6060830184611ec5565b95945050505050565b7f596f7520617265207265706f7274696e672061206272616e642062757420796f60008201527f7520646f6e742774206f776e20616e79206f6620697427732070726f6475637460208201527f7300000000000000000000000000000000000000000000000000000000000000604082015250565b6000612756604183611f50565b9150612761826126d4565b606082019050919050565b6000602082019050818103600083015261278581612749565b9050919050565b7f596f752063616e2774207265706f72742061206272616e642074776963650000600082015250565b60006127c2601e83611f50565b91506127cd8261278c565b602082019050919050565b600060208201905081810360008301526127f1816127b5565b9050919050565b600060408201905061280d6000830185611e2f565b61281a6020830184611e2f565b9392505050565b7f4f776e6572206861732061206272616e64206f6e207468652073616d6520616360008201527f636f756e74000000000000000000000000000000000000000000000000000000602082015250565b600061287d602583611f50565b915061288882612821565b604082019050919050565b600060208201905081810360008301526128ac81612870565b9050919050565b600081905092915050565b60006128c982611f45565b6128d381856128b3565b93506128e3818560208601611f61565b80840191505092915050565b60006128fb82846128be565b915081905092915050565b7f4272616e64204e616d6520416c72656164792045786973747300000000000000600082015250565b600061293c601983611f50565b915061294782612906565b602082019050919050565b6000602082019050818103600083015261296b8161292f565b9050919050565b60008190508160005260206000209050919050565b60006020601f8301049050919050565b600082821b905092915050565b6000600883026129d47fffffffffffffffffffffffffffffffffffffffffffffffffffffffffffffffff82612997565b6129de8683612997565b95508019841693508086168417925050509392505050565b6000612a11612a0c612a0784611d9a565b612630565b611d9a565b9050919050565b6000819050919050565b612a2b836129f6565b612a3f612a3782612a18565b8484546129a4565b825550505050565b600090565b612a54612a47565b612a5f818484612a22565b505050565b5b81811015612a8357612a78600082612a4c565b600181019050612a65565b5050565b601f821115612ac857612a9981612972565b612aa284612987565b81016020851015612ab1578190505b612ac5612abd85612987565b830182612a64565b50505b505050565b600082821c905092915050565b6000612aeb60001984600802612acd565b1980831691505092915050565b6000612b048383612ada565b9150826002028217905092915050565b612b1d82611f45565b67ffffffffffffffff811115612b3657612b356120d7565b5b612b40825461242d565b612b4b828285612a87565b600060209050601f831160018114612b7e5760008415612b6c578287015190505b612b768582612af8565b865550612bde565b601f198416612b8c86612972565b60005b82811015612bb457848901518255600182019150602085019450602081019050612b8f565b86831015612bd15784890151612bcd601f891682612ada565b8355505b6001600288020188555050505b505050505050565b6000604082019050612bfb6000830185611e2f565b8181036020830152612c0d8184611f9c565b90509392505050565b7f4e6f7420612052656769737465726564204272616e6400000000000000000000600082015250565b6000612c4c601683611f50565b9150612c5782612c16565b602082019050919050565b60006020820190508181036000830152612c7b81612c3f565b9050919050565b7f5072696365206d757374206265206c657373207468616e204d6178696d756d2060008201527f52657461696c2050726963650000000000000000000000000000000000000000602082015250565b6000612cde602c83611f50565b9150612ce982612c82565b604082019050919050565b60006020820190508181036000830152612d0d81612cd1565b9050919050565b6000604082019050612d296000830185611e2f565b612d366020830184611ec5565b9392505050565b7f5072696365206d757374206265206c657373207468616e204d52500000000000600082015250565b6000612d73601b83611f50565b9150612d7e82612d3d565b602082019050919050565b60006020820190508181036000830152612da281612d66565b9050919050565b6000604082019050612dbe6000830185611ec5565b612dcb6020830184611ec5565b9392505050565b60008154612ddf8161242d565b612de981866128b3565b94506001821660008114612e045760018114612e1957612e4c565b60ff1983168652811515820286019350612e4c565b612e2285612972565b60005b83811015612e4457815481890152600182019150602081019050612e25565b838801955050505b50505092915050565b6000612e618284612dd2565b915081905092915050565b60008154612e798161242d565b612e838186611f50565b94506001821660008114612e9e5760018114612eb457612ee7565b60ff198316865281151560200286019350612ee7565b612ebd85612972565b60005b83811015612edf57815481890152600182019150602081019050612ec0565b808801955050505b50505092915050565b6000604082019050612f056000830185611e2f565b8181036020830152612f178184612e6c565b9050939250505056fea2646970667358221220e70332cd78288df20e8fe4c5153732fbb92bc4c21931f8799d5029962e5dff6b64736f6c63430008130033",
  "immutableReferences": {},
  "source": "// SPDX-License-Identifier: MIT\r\npragma solidity ^0.8.0;\r\n\r\nimport './ProductFactory.sol';\r\n\r\ncontract Market is ProductFactory {\r\n    event priceUpdated(uint256 _productId, uint256 _newPrice);\r\n    event saleStarted(uint256 _productId);\r\n    event saleClosed(uint256 _productId);\r\n    event buySuccess(\r\n        uint256 indexed _productId,\r\n        address _from,\r\n        address _to,\r\n        uint256 _price,\r\n        uint256 _time\r\n    );\r\n\r\n    modifier hasEnoughMoney(uint256 _productId) {\r\n        require(\r\n            msg.value >= products[_productId].price,\r\n            'The amount is not sufficient'\r\n        );\r\n        _;\r\n    }\r\n\r\n    function setPrice(uint256 _productId, uint256 _price)\r\n        public\r\n        onlyProductOwner(_productId)\r\n        isValidPrice(_productId, _price)\r\n    {\r\n        products[_productId].price = _price;\r\n        emit priceUpdated(_productId, _price);\r\n    }\r\n\r\n    function openForSale(uint256 _productId)\r\n        public\r\n        onlyProductOwner(_productId)\r\n    {\r\n        products[_productId].forSale = true;\r\n        emit saleStarted(_productId);\r\n    }\r\n\r\n    function closeForSale(uint256 _productId)\r\n        public\r\n        onlyProductOwner(_productId)\r\n    {\r\n        products[_productId].forSale = false;\r\n        emit saleClosed(_productId);\r\n    }\r\n\r\n    function buyProduct(uint256 _productId)\r\n        public\r\n        payable\r\n        isAvailableForSale(_productId)\r\n        hasEnoughMoney(_productId)\r\n    {\r\n        address payable _seller = payable(productToOwner[_productId]);\r\n        address payable _buyer = payable(msg.sender);\r\n        _seller.transfer(products[_productId].price);\r\n        _buyer.transfer(msg.value - products[_productId].price);\r\n        productToOwner[_productId] = msg.sender;\r\n\r\n        // Report Stuff\r\n        address _brandOwner = products[_productId].manufacturer;\r\n        userBrand[_seller][_brandOwner].productCount--;\r\n        userBrand[_buyer][_brandOwner].productCount++;\r\n        // If seller has reported the brand and is now selling his last product of that brand\r\n        if (\r\n            userBrand[_seller][_brandOwner].productCount == 0 &&\r\n            userBrand[_seller][_brandOwner].hasReported\r\n        ) {\r\n            userBrand[_seller][_brandOwner].hasReported = false;\r\n            revokeReport(_brandOwner, _seller);\r\n        }\r\n\r\n        emit buySuccess(\r\n            _productId,\r\n            _seller,\r\n            _buyer,\r\n            products[_productId].price,\r\n            block.timestamp\r\n        );\r\n    }\r\n}\r\n",
  "sourcePath": "C:\\Users\\Madhukesh Singh\\Desktop\\BuySafe\\contracts\\Market.sol",
  "compiler": {
    "name": "solc",
    "version": "0.8.19+commit.7dd6d404.Emscripten.clang"
  },
  "schemaVersion": "3.4.13",
  "updatedAt": "2023-03-27T08:25:54.976Z",
  "devdoc": {
    "kind": "dev",
    "methods": {},
    "version": 1
  },
  "userdoc": {
    "kind": "user",
    "methods": {},
    "version": 1
  }
}