{
  "contractName": "ProductFactory",
  "abi": [
    {
      "anonymous": false,
      "inputs": [
        {
          "indexed": false,
          "internalType": "address",
          "name": "_owner",
          "type": "address"
        },
        {
          "indexed": false,
          "internalType": "string",
          "name": "_brandName",
          "type": "string"
        }
      ],
      "name": "BrandCreated",
      "type": "event"
    },
    {
      "anonymous": false,
      "inputs": [
        {
          "indexed": false,
          "internalType": "address",
          "name": "_owner",
          "type": "address"
        },
        {
          "indexed": false,
          "internalType": "string",
          "name": "_brandName",
          "type": "string"
        }
      ],
      "name": "BrandDeleted",
      "type": "event"
    },
    {
      "anonymous": false,
      "inputs": [
        {
          "indexed": false,
          "internalType": "address",
          "name": "_manufacturer",
          "type": "address"
        },
        {
          "indexed": true,
          "internalType": "uint256",
          "name": "_productId",
          "type": "uint256"
        },
        {
          "indexed": false,
          "internalType": "uint256",
          "name": "_time",
          "type": "uint256"
        }
      ],
      "name": "ProductCreated",
      "type": "event"
    },
    {
      "anonymous": false,
      "inputs": [
        {
          "indexed": false,
          "internalType": "address",
          "name": "_brandOwner",
          "type": "address"
        },
        {
          "indexed": false,
          "internalType": "address",
          "name": "_revokedBy",
          "type": "address"
        }
      ],
      "name": "brandReportRevoved",
      "type": "event"
    },
    {
      "anonymous": false,
      "inputs": [
        {
          "indexed": false,
          "internalType": "address",
          "name": "_brandOwner",
          "type": "address"
        },
        {
          "indexed": false,
          "internalType": "address",
          "name": "_reportedBy",
          "type": "address"
        }
      ],
      "name": "brandReported",
      "type": "event"
    },
    {
      "inputs": [
        {
          "internalType": "uint256",
          "name": "",
          "type": "uint256"
        }
      ],
      "name": "brandOwners",
      "outputs": [
        {
          "internalType": "address",
          "name": "",
          "type": "address"
        }
      ],
      "stateMutability": "view",
      "type": "function"
    },
    {
      "inputs": [
        {
          "internalType": "address",
          "name": "",
          "type": "address"
        }
      ],
      "name": "brands",
      "outputs": [
        {
          "internalType": "string",
          "name": "brandName",
          "type": "string"
        },
        {
          "internalType": "string",
          "name": "logo",
          "type": "string"
        },
        {
          "internalType": "uint256",
          "name": "reports",
          "type": "uint256"
        }
      ],
      "stateMutability": "view",
      "type": "function"
    },
    {
      "inputs": [
        {
          "internalType": "address",
          "name": "_brandOwner",
          "type": "address"
        },
        {
          "internalType": "address",
          "name": "_caller",
          "type": "address"
        }
      ],
      "name": "canIReport",
      "outputs": [
        {
          "internalType": "bool",
          "name": "canI",
          "type": "bool"
        },
        {
          "internalType": "string",
          "name": "reason",
          "type": "string"
        }
      ],
      "stateMutability": "view",
      "type": "function"
    },
    {
      "inputs": [
        {
          "internalType": "string",
          "name": "_brandName",
          "type": "string"
        },
        {
          "internalType": "string",
          "name": "_logo",
          "type": "string"
        }
      ],
      "name": "createBrand",
      "outputs": [],
      "stateMutability": "nonpayable",
      "type": "function"
    },
    {
      "inputs": [],
      "name": "getBrandsLength",
      "outputs": [
        {
          "internalType": "uint256",
          "name": "",
          "type": "uint256"
        }
      ],
      "stateMutability": "view",
      "type": "function"
    },
    {
      "inputs": [
        {
          "internalType": "uint256",
          "name": "",
          "type": "uint256"
        }
      ],
      "name": "productToOwner",
      "outputs": [
        {
          "internalType": "address",
          "name": "",
          "type": "address"
        }
      ],
      "stateMutability": "view",
      "type": "function"
    },
    {
      "inputs": [
        {
          "internalType": "uint256",
          "name": "",
          "type": "uint256"
        }
      ],
      "name": "products",
      "outputs": [
        {
          "internalType": "address",
          "name": "manufacturer",
          "type": "address"
        },
        {
          "internalType": "string",
          "name": "model",
          "type": "string"
        },
        {
          "internalType": "uint256",
          "name": "mfg",
          "type": "uint256"
        },
        {
          "internalType": "uint256",
          "name": "price",
          "type": "uint256"
        },
        {
          "internalType": "uint256",
          "name": "mrp",
          "type": "uint256"
        },
        {
          "internalType": "bool",
          "name": "forSale",
          "type": "bool"
        }
      ],
      "stateMutability": "view",
      "type": "function"
    },
    {
      "inputs": [
        {
          "internalType": "address",
          "name": "_brandOwner",
          "type": "address"
        }
      ],
      "name": "reportBrand",
      "outputs": [],
      "stateMutability": "nonpayable",
      "type": "function"
    },
    {
      "inputs": [
        {
          "internalType": "address",
          "name": "",
          "type": "address"
        },
        {
          "internalType": "address",
          "name": "",
          "type": "address"
        }
      ],
      "name": "userBrand",
      "outputs": [
        {
          "internalType": "uint256",
          "name": "productCount",
          "type": "uint256"
        },
        {
          "internalType": "bool",
          "name": "hasReported",
          "type": "bool"
        }
      ],
      "stateMutability": "view",
      "type": "function"
    },
    {
      "inputs": [
        {
          "internalType": "uint256",
          "name": "_mfg",
          "type": "uint256"
        },
        {
          "internalType": "string",
          "name": "_model",
          "type": "string"
        },
        {
          "internalType": "uint256",
          "name": "_price",
          "type": "uint256"
        },
        {
          "internalType": "uint256",
          "name": "_mrp",
          "type": "uint256"
        }
      ],
      "name": "createProduct",
      "outputs": [],
      "stateMutability": "nonpayable",
      "type": "function"
    },
    {
      "inputs": [],
      "name": "productCount",
      "outputs": [
        {
          "internalType": "uint256",
          "name": "",
          "type": "uint256"
        }
      ],
      "stateMutability": "view",
      "type": "function"
    }
  ],
  "bytecode": "0x608060405234801561001057600080fd5b50612066806100206000396000f3fe608060405234801561001057600080fd5b50600436106100a95760003560e01c80638eb05f88116100715780638eb05f88146101a657806393a2abdd146101c2578063ca86c637146101e0578063e0f6ef8714610211578063e3acfcce1461022f578063f4a44d2d1461024b576100a9565b80630349da7e146100ae57806316cba8ec146100de578063420fadc81461010f5780635b7fd9b51461013f5780637acc0b2014610171575b600080fd5b6100c860048036038101906100c39190611237565b610267565b6040516100d591906112a5565b60405180910390f35b6100f860048036038101906100f391906112ec565b6102a6565b604051610106929190611356565b60405180910390f35b61012960048036038101906101249190611237565b6102e4565b60405161013691906112a5565b60405180910390f35b6101596004803603810190610154919061137f565b610317565b6040516101689392919061143c565b60405180910390f35b61018b60048036038101906101869190611237565b610451565b60405161019d96959493929190611481565b60405180910390f35b6101c060048036038101906101bb919061137f565b610552565b005b6101ca610868565b6040516101d791906114e9565b60405180910390f35b6101fa60048036038101906101f591906112ec565b610875565b604051610208929190611504565b60405180910390f35b610219610a5e565b60405161022691906114e9565b60405180910390f35b61024960048036038101906102449190611669565b610a6b565b005b610265600480360381019061026091906116e1565b610d5b565b005b6002818154811061027757600080fd5b906000526020600020016000915054906101000a900473ffffffffffffffffffffffffffffffffffffffff1681565b6003602052816000526040600020602052806000526040600020600091509150508060000154908060010160009054906101000a900460ff16905082565b60056020528060005260406000206000915054906101000a900473ffffffffffffffffffffffffffffffffffffffff1681565b600060205280600052604060002060009150905080600001805461033a90611793565b80601f016020809104026020016040519081016040528092919081815260200182805461036690611793565b80156103b35780601f10610388576101008083540402835291602001916103b3565b820191906000526020600020905b81548152906001019060200180831161039657829003601f168201915b5050505050908060010180546103c890611793565b80601f01602080910402602001604051908101604052809291908181526020018280546103f490611793565b80156104415780601f1061041657610100808354040283529160200191610441565b820191906000526020600020905b81548152906001019060200180831161042457829003601f168201915b5050505050908060020154905083565b6004818154811061046157600080fd5b90600052602060002090600602016000915090508060000160009054906101000a900473ffffffffffffffffffffffffffffffffffffffff16908060010180546104aa90611793565b80601f01602080910402602001604051908101604052809291908181526020018280546104d690611793565b80156105235780601f106104f857610100808354040283529160200191610523565b820191906000526020600020905b81548152906001019060200180831161050657829003601f168201915b5050505050908060020154908060030154908060040154908060050160009054906101000a900460ff16905086565b806000600360003373ffffffffffffffffffffffffffffffffffffffff1673ffffffffffffffffffffffffffffffffffffffff16815260200190815260200160002060008373ffffffffffffffffffffffffffffffffffffffff1673ffffffffffffffffffffffffffffffffffffffff1681526020019081526020016000206000015411610615576040517f08c379a000000000000000000000000000000000000000000000000000000000815260040161060c9061185c565b60405180910390fd5b60001515600360003373ffffffffffffffffffffffffffffffffffffffff1673ffffffffffffffffffffffffffffffffffffffff16815260200190815260200160002060008373ffffffffffffffffffffffffffffffffffffffff1673ffffffffffffffffffffffffffffffffffffffff16815260200190815260200160002060010160009054906101000a900460ff161515146106e8576040517f08c379a00000000000000000000000000000000000000000000000000000000081526004016106df906118c8565b60405180910390fd5b6001600360003373ffffffffffffffffffffffffffffffffffffffff1673ffffffffffffffffffffffffffffffffffffffff16815260200190815260200160002060008473ffffffffffffffffffffffffffffffffffffffff1673ffffffffffffffffffffffffffffffffffffffff16815260200190815260200160002060010160006101000a81548160ff0219169083151502179055506000808373ffffffffffffffffffffffffffffffffffffffff1673ffffffffffffffffffffffffffffffffffffffff16815260200190815260200160002060020160008154809291906107d290611917565b919050555060026000808473ffffffffffffffffffffffffffffffffffffffff1673ffffffffffffffffffffffffffffffffffffffff16815260200190815260200160002060020154111561082b5761082a82611103565b5b7fe7747c1468ca696f832f20cb4db5f557554916e9035754b5b071c3b04a4decb8823360405161085c92919061195f565b60405180910390a15050565b6000600280549050905090565b600060606000600360008573ffffffffffffffffffffffffffffffffffffffff1673ffffffffffffffffffffffffffffffffffffffff16815260200190815260200160002060008673ffffffffffffffffffffffffffffffffffffffff1673ffffffffffffffffffffffffffffffffffffffff16815260200190815260200160002060000154036109415760006040518060400160405280600e81526020017f466972737420507572636861736500000000000000000000000000000000000081525091509150610a57565b60011515600360008573ffffffffffffffffffffffffffffffffffffffff1673ffffffffffffffffffffffffffffffffffffffff16815260200190815260200160002060008673ffffffffffffffffffffffffffffffffffffffff1673ffffffffffffffffffffffffffffffffffffffff16815260200190815260200160002060010160009054906101000a900460ff16151503610a1a5760006040518060400160405280601081526020017f416c7265616479205265706f727465640000000000000000000000000000000081525091509150610a57565b60016040518060400160405280600681526020017f5265706f72740000000000000000000000000000000000000000000000000000815250915091505b9250929050565b6000600480549050905090565b60008060003373ffffffffffffffffffffffffffffffffffffffff1673ffffffffffffffffffffffffffffffffffffffff1681526020019081526020016000206000018054610ab990611793565b80601f0160208091040260200160405190810160405280929190818152602001828054610ae590611793565b8015610b325780601f10610b0757610100808354040283529160200191610b32565b820191906000526020600020905b815481529060010190602001808311610b1557829003601f168201915b505050505090506000815114610b7d576040517f08c379a0000000000000000000000000000000000000000000000000000000008152600401610b74906119fa565b60405180910390fd5b8260001515600182604051610b929190611a56565b908152602001604051809103902060009054906101000a900460ff16151514610bf0576040517f08c379a0000000000000000000000000000000000000000000000000000000008152600401610be790611ab9565b60405180910390fd5b6002339080600181540180825580915050600190039060005260206000200160009091909190916101000a81548173ffffffffffffffffffffffffffffffffffffffff021916908373ffffffffffffffffffffffffffffffffffffffff160217905550604051806060016040528085815260200184815260200160008152506000803373ffffffffffffffffffffffffffffffffffffffff1673ffffffffffffffffffffffffffffffffffffffff1681526020019081526020016000206000820151816000019081610cc29190611c85565b506020820151816001019081610cd89190611c85565b506040820151816002015590505060018085604051610cf79190611a56565b908152602001604051809103902060006101000a81548160ff0219169083151502179055507fe6fbc010725b0b71430339ac30f684b21c0b685f04c99a05b107206a8c63a1fa3385604051610d4d929190611d57565b60405180910390a150505050565b3360008060008373ffffffffffffffffffffffffffffffffffffffff1673ffffffffffffffffffffffffffffffffffffffff1681526020019081526020016000206000018054610daa90611793565b80601f0160208091040260200160405190810160405280929190818152602001828054610dd690611793565b8015610e235780601f10610df857610100808354040283529160200191610e23565b820191906000526020600020905b815481529060010190602001808311610e0657829003601f168201915b505050505090506000815111610e6e576040517f08c379a0000000000000000000000000000000000000000000000000000000008152600401610e6590611dd3565b60405180910390fd5b838380821115610eb3576040517f08c379a0000000000000000000000000000000000000000000000000000000008152600401610eaa90611e65565b60405180910390fd5b60046040518060c001604052803373ffffffffffffffffffffffffffffffffffffffff1681526020018981526020018a815260200188815260200187815260200160011515815250908060018154018082558091505060019003906000526020600020906006020160009091909190915060008201518160000160006101000a81548173ffffffffffffffffffffffffffffffffffffffff021916908373ffffffffffffffffffffffffffffffffffffffff1602179055506020820151816001019081610f809190611c85565b5060408201518160020155606082015181600301556080820151816004015560a08201518160050160006101000a81548160ff021916908315150217905550505060006001600480549050610fd59190611e85565b9050336005600083815260200190815260200160002060006101000a81548173ffffffffffffffffffffffffffffffffffffffff021916908373ffffffffffffffffffffffffffffffffffffffff160217905550600360003373ffffffffffffffffffffffffffffffffffffffff1673ffffffffffffffffffffffffffffffffffffffff16815260200190815260200160002060003373ffffffffffffffffffffffffffffffffffffffff1673ffffffffffffffffffffffffffffffffffffffff16815260200190815260200160002060000160008154809291906110b990611917565b9190505550807fa119589d8d9d80f8c531968021b54e16e57f459b696c6e16dc14f622a373061b33426040516110f0929190611eb9565b60405180910390a2505050505050505050565b60016000808373ffffffffffffffffffffffffffffffffffffffff1673ffffffffffffffffffffffffffffffffffffffff1681526020019081526020016000206000016040516111539190611f65565b908152602001604051809103902060006101000a81549060ff02191690557f8a36be64cb775ce9b5064fb7f6e835793bfff4f4a873dee5d16268132033852f816000808473ffffffffffffffffffffffffffffffffffffffff1673ffffffffffffffffffffffffffffffffffffffff1681526020019081526020016000206000016040516111e2929190612000565b60405180910390a150565b6000604051905090565b600080fd5b600080fd5b6000819050919050565b61121481611201565b811461121f57600080fd5b50565b6000813590506112318161120b565b92915050565b60006020828403121561124d5761124c6111f7565b5b600061125b84828501611222565b91505092915050565b600073ffffffffffffffffffffffffffffffffffffffff82169050919050565b600061128f82611264565b9050919050565b61129f81611284565b82525050565b60006020820190506112ba6000830184611296565b92915050565b6112c981611284565b81146112d457600080fd5b50565b6000813590506112e6816112c0565b92915050565b60008060408385031215611303576113026111f7565b5b6000611311858286016112d7565b9250506020611322858286016112d7565b9150509250929050565b61133581611201565b82525050565b60008115159050919050565b6113508161133b565b82525050565b600060408201905061136b600083018561132c565b6113786020830184611347565b9392505050565b600060208284031215611395576113946111f7565b5b60006113a3848285016112d7565b91505092915050565b600081519050919050565b600082825260208201905092915050565b60005b838110156113e65780820151818401526020810190506113cb565b60008484015250505050565b6000601f19601f8301169050919050565b600061140e826113ac565b61141881856113b7565b93506114288185602086016113c8565b611431816113f2565b840191505092915050565b600060608201905081810360008301526114568186611403565b9050818103602083015261146a8185611403565b9050611479604083018461132c565b949350505050565b600060c0820190506114966000830189611296565b81810360208301526114a88188611403565b90506114b7604083018761132c565b6114c4606083018661132c565b6114d1608083018561132c565b6114de60a0830184611347565b979650505050505050565b60006020820190506114fe600083018461132c565b92915050565b60006040820190506115196000830185611347565b818103602083015261152b8184611403565b90509392505050565b600080fd5b600080fd5b7f4e487b7100000000000000000000000000000000000000000000000000000000600052604160045260246000fd5b611576826113f2565b810181811067ffffffffffffffff821117156115955761159461153e565b5b80604052505050565b60006115a86111ed565b90506115b4828261156d565b919050565b600067ffffffffffffffff8211156115d4576115d361153e565b5b6115dd826113f2565b9050602081019050919050565b82818337600083830152505050565b600061160c611607846115b9565b61159e565b90508281526020810184848401111561162857611627611539565b5b6116338482856115ea565b509392505050565b600082601f8301126116505761164f611534565b5b81356116608482602086016115f9565b91505092915050565b600080604083850312156116805761167f6111f7565b5b600083013567ffffffffffffffff81111561169e5761169d6111fc565b5b6116aa8582860161163b565b925050602083013567ffffffffffffffff8111156116cb576116ca6111fc565b5b6116d78582860161163b565b9150509250929050565b600080600080608085870312156116fb576116fa6111f7565b5b600061170987828801611222565b945050602085013567ffffffffffffffff81111561172a576117296111fc565b5b6117368782880161163b565b935050604061174787828801611222565b925050606061175887828801611222565b91505092959194509250565b7f4e487b7100000000000000000000000000000000000000000000000000000000600052602260045260246000fd5b600060028204905060018216806117ab57607f821691505b6020821081036117be576117bd611764565b5b50919050565b7f596f7520617265207265706f7274696e672061206272616e642062757420796f60008201527f7520646f6e742774206f776e20616e79206f6620697427732070726f6475637460208201527f7300000000000000000000000000000000000000000000000000000000000000604082015250565b60006118466041836113b7565b9150611851826117c4565b606082019050919050565b6000602082019050818103600083015261187581611839565b9050919050565b7f596f752063616e2774207265706f72742061206272616e642074776963650000600082015250565b60006118b2601e836113b7565b91506118bd8261187c565b602082019050919050565b600060208201905081810360008301526118e1816118a5565b9050919050565b7f4e487b7100000000000000000000000000000000000000000000000000000000600052601160045260246000fd5b600061192282611201565b91507fffffffffffffffffffffffffffffffffffffffffffffffffffffffffffffffff8203611954576119536118e8565b5b600182019050919050565b60006040820190506119746000830185611296565b6119816020830184611296565b9392505050565b7f4f776e6572206861732061206272616e64206f6e207468652073616d6520616360008201527f636f756e74000000000000000000000000000000000000000000000000000000602082015250565b60006119e46025836113b7565b91506119ef82611988565b604082019050919050565b60006020820190508181036000830152611a13816119d7565b9050919050565b600081905092915050565b6000611a30826113ac565b611a3a8185611a1a565b9350611a4a8185602086016113c8565b80840191505092915050565b6000611a628284611a25565b915081905092915050565b7f4272616e64204e616d6520416c72656164792045786973747300000000000000600082015250565b6000611aa36019836113b7565b9150611aae82611a6d565b602082019050919050565b60006020820190508181036000830152611ad281611a96565b9050919050565b60008190508160005260206000209050919050565b60006020601f8301049050919050565b600082821b905092915050565b600060088302611b3b7fffffffffffffffffffffffffffffffffffffffffffffffffffffffffffffffff82611afe565b611b458683611afe565b95508019841693508086168417925050509392505050565b6000819050919050565b6000611b82611b7d611b7884611201565b611b5d565b611201565b9050919050565b6000819050919050565b611b9c83611b67565b611bb0611ba882611b89565b848454611b0b565b825550505050565b600090565b611bc5611bb8565b611bd0818484611b93565b505050565b5b81811015611bf457611be9600082611bbd565b600181019050611bd6565b5050565b601f821115611c3957611c0a81611ad9565b611c1384611aee565b81016020851015611c22578190505b611c36611c2e85611aee565b830182611bd5565b50505b505050565b600082821c905092915050565b6000611c5c60001984600802611c3e565b1980831691505092915050565b6000611c758383611c4b565b9150826002028217905092915050565b611c8e826113ac565b67ffffffffffffffff811115611ca757611ca661153e565b5b611cb18254611793565b611cbc828285611bf8565b600060209050601f831160018114611cef5760008415611cdd578287015190505b611ce78582611c69565b865550611d4f565b601f198416611cfd86611ad9565b60005b82811015611d2557848901518255600182019150602085019450602081019050611d00565b86831015611d425784890151611d3e601f891682611c4b565b8355505b6001600288020188555050505b505050505050565b6000604082019050611d6c6000830185611296565b8181036020830152611d7e8184611403565b90509392505050565b7f4e6f7420612052656769737465726564204272616e6400000000000000000000600082015250565b6000611dbd6016836113b7565b9150611dc882611d87565b602082019050919050565b60006020820190508181036000830152611dec81611db0565b9050919050565b7f5072696365206d757374206265206c657373207468616e204d6178696d756d2060008201527f52657461696c2050726963650000000000000000000000000000000000000000602082015250565b6000611e4f602c836113b7565b9150611e5a82611df3565b604082019050919050565b60006020820190508181036000830152611e7e81611e42565b9050919050565b6000611e9082611201565b9150611e9b83611201565b9250828203905081811115611eb357611eb26118e8565b5b92915050565b6000604082019050611ece6000830185611296565b611edb602083018461132c565b9392505050565b60008154611eef81611793565b611ef98186611a1a565b94506001821660008114611f145760018114611f2957611f5c565b60ff1983168652811515820286019350611f5c565b611f3285611ad9565b60005b83811015611f5457815481890152600182019150602081019050611f35565b838801955050505b50505092915050565b6000611f718284611ee2565b915081905092915050565b60008154611f8981611793565b611f9381866113b7565b94506001821660008114611fae5760018114611fc457611ff7565b60ff198316865281151560200286019350611ff7565b611fcd85611ad9565b60005b83811015611fef57815481890152600182019150602081019050611fd0565b808801955050505b50505092915050565b60006040820190506120156000830185611296565b81810360208301526120278184611f7c565b9050939250505056fea2646970667358221220770fec3a6b6592b85e1e8ec16a6c0487b427f6ab0179e3e7dc656d2bf3991e6864736f6c63430008130033",
  "immutableReferences": {},
  "source": "// SPDX-License-Identifier: MIT\r\npragma solidity ^0.8.0;\r\n\r\nimport './Report.sol';\r\n\r\ncontract ProductFactory is Report {\r\n    struct Product {\r\n        address manufacturer;\r\n        string model;\r\n        uint256 mfg;\r\n        uint256 price;\r\n        uint256 mrp;\r\n        bool forSale;\r\n    }\r\n\r\n    Product[] public products;\r\n    mapping(uint256 => address) public productToOwner;\r\n\r\n    event ProductCreated(\r\n        address _manufacturer,\r\n        uint256 indexed _productId,\r\n        uint256 _time\r\n    );\r\n\r\n    modifier onlyProductOwner(uint256 _productId) {\r\n        require(\r\n            productToOwner[_productId] == msg.sender,\r\n            'Only Product Owner can perform this operation'\r\n        );\r\n        _;\r\n    }\r\n\r\n    modifier isValidPrice(uint256 _productId, uint256 _price) {\r\n        require(\r\n            _price <= products[_productId].mrp,\r\n            'Price must be less than MRP'\r\n        );\r\n        _;\r\n    }\r\n\r\n    modifier isAvailableForSale(uint256 _productId) {\r\n        require(\r\n            products[_productId].forSale == true,\r\n            'The product is not available for sale'\r\n        );\r\n        _;\r\n    }\r\n\r\n    modifier checkMrp(uint256 _price, uint256 _mrp) {\r\n        require(_price <= _mrp, 'Price must be less than Maximum Retail Price');\r\n        _;\r\n    }\r\n\r\n    function createProduct(\r\n        uint256 _mfg,\r\n        string memory _model,\r\n        uint256 _price,\r\n        uint256 _mrp\r\n    ) public checkBrand(msg.sender) checkMrp(_price, _mrp) {\r\n        products.push(Product(msg.sender, _model, _mfg, _price, _mrp, true));\r\n        uint256 _productId = products.length - 1;\r\n        productToOwner[_productId] = msg.sender;\r\n        userBrand[msg.sender][msg.sender].productCount++;\r\n        emit ProductCreated(msg.sender, _productId, block.timestamp);\r\n    }\r\n\r\n    function productCount() public view returns (uint256) {\r\n        return products.length;\r\n    }\r\n}\r\n",
  "sourcePath": "C:\\Users\\Madhukesh Singh\\Desktop\\BuySafe\\contracts\\ProductFactory.sol",
  "compiler": {
    "name": "solc",
    "version": "0.8.19+commit.7dd6d404.Emscripten.clang"
  },
  "schemaVersion": "3.4.13",
  "updatedAt": "2023-03-27T08:25:54.996Z",
  "devdoc": {
    "kind": "dev",
    "methods": {},
    "version": 1
  },
  "userdoc": {
    "kind": "user",
    "methods": {},
    "version": 1
  }
}