{
  "contractName": "Report",
  "abi": [
    {
      "anonymous": false,
      "inputs": [
        {
          "indexed": false,
          "internalType": "address",
          "name": "_owner",
          "type": "address"
        },
        {
          "indexed": false,
          "internalType": "string",
          "name": "_brandName",
          "type": "string"
        }
      ],
      "name": "BrandCreated",
      "type": "event"
    },
    {
      "anonymous": false,
      "inputs": [
        {
          "indexed": false,
          "internalType": "address",
          "name": "_owner",
          "type": "address"
        },
        {
          "indexed": false,
          "internalType": "string",
          "name": "_brandName",
          "type": "string"
        }
      ],
      "name": "BrandDeleted",
      "type": "event"
    },
    {
      "anonymous": false,
      "inputs": [
        {
          "indexed": false,
          "internalType": "address",
          "name": "_brandOwner",
          "type": "address"
        },
        {
          "indexed": false,
          "internalType": "address",
          "name": "_revokedBy",
          "type": "address"
        }
      ],
      "name": "brandReportRevoved",
      "type": "event"
    },
    {
      "anonymous": false,
      "inputs": [
        {
          "indexed": false,
          "internalType": "address",
          "name": "_brandOwner",
          "type": "address"
        },
        {
          "indexed": false,
          "internalType": "address",
          "name": "_reportedBy",
          "type": "address"
        }
      ],
      "name": "brandReported",
      "type": "event"
    },
    {
      "inputs": [
        {
          "internalType": "uint256",
          "name": "",
          "type": "uint256"
        }
      ],
      "name": "brandOwners",
      "outputs": [
        {
          "internalType": "address",
          "name": "",
          "type": "address"
        }
      ],
      "stateMutability": "view",
      "type": "function"
    },
    {
      "inputs": [
        {
          "internalType": "address",
          "name": "",
          "type": "address"
        }
      ],
      "name": "brands",
      "outputs": [
        {
          "internalType": "string",
          "name": "brandName",
          "type": "string"
        },
        {
          "internalType": "string",
          "name": "logo",
          "type": "string"
        },
        {
          "internalType": "uint256",
          "name": "reports",
          "type": "uint256"
        }
      ],
      "stateMutability": "view",
      "type": "function"
    },
    {
      "inputs": [
        {
          "internalType": "string",
          "name": "_brandName",
          "type": "string"
        },
        {
          "internalType": "string",
          "name": "_logo",
          "type": "string"
        }
      ],
      "name": "createBrand",
      "outputs": [],
      "stateMutability": "nonpayable",
      "type": "function"
    },
    {
      "inputs": [],
      "name": "getBrandsLength",
      "outputs": [
        {
          "internalType": "uint256",
          "name": "",
          "type": "uint256"
        }
      ],
      "stateMutability": "view",
      "type": "function"
    },
    {
      "inputs": [
        {
          "internalType": "address",
          "name": "",
          "type": "address"
        },
        {
          "internalType": "address",
          "name": "",
          "type": "address"
        }
      ],
      "name": "userBrand",
      "outputs": [
        {
          "internalType": "uint256",
          "name": "productCount",
          "type": "uint256"
        },
        {
          "internalType": "bool",
          "name": "hasReported",
          "type": "bool"
        }
      ],
      "stateMutability": "view",
      "type": "function"
    },
    {
      "inputs": [
        {
          "internalType": "address",
          "name": "_brandOwner",
          "type": "address"
        }
      ],
      "name": "reportBrand",
      "outputs": [],
      "stateMutability": "nonpayable",
      "type": "function"
    },
    {
      "inputs": [
        {
          "internalType": "address",
          "name": "_brandOwner",
          "type": "address"
        },
        {
          "internalType": "address",
          "name": "_caller",
          "type": "address"
        }
      ],
      "name": "canIReport",
      "outputs": [
        {
          "internalType": "bool",
          "name": "canI",
          "type": "bool"
        },
        {
          "internalType": "string",
          "name": "reason",
          "type": "string"
        }
      ],
      "stateMutability": "view",
      "type": "function"
    }
  ],
  "bytecode": "0x608060405234801561001057600080fd5b5061186c806100206000396000f3fe608060405234801561001057600080fd5b506004361061007d5760003560e01c80638eb05f881161005b5780638eb05f881461011557806393a2abdd14610131578063ca86c6371461014f578063e3acfcce146101805761007d565b80630349da7e1461008257806316cba8ec146100b25780635b7fd9b5146100e3575b600080fd5b61009c60048036038101906100979190610c83565b61019c565b6040516100a99190610cf1565b60405180910390f35b6100cc60048036038101906100c79190610d38565b6101db565b6040516100da929190610da2565b60405180910390f35b6100fd60048036038101906100f89190610dcb565b610219565b60405161010c93929190610e88565b60405180910390f35b61012f600480360381019061012a9190610dcb565b610353565b005b610139610669565b6040516101469190610ecd565b60405180910390f35b61016960048036038101906101649190610d38565b610676565b604051610177929190610ee8565b60405180910390f35b61019a6004803603810190610195919061104d565b61085f565b005b600281815481106101ac57600080fd5b906000526020600020016000915054906101000a900473ffffffffffffffffffffffffffffffffffffffff1681565b6003602052816000526040600020602052806000526040600020600091509150508060000154908060010160009054906101000a900460ff16905082565b600060205280600052604060002060009150905080600001805461023c906110f4565b80601f0160208091040260200160405190810160405280929190818152602001828054610268906110f4565b80156102b55780601f1061028a576101008083540402835291602001916102b5565b820191906000526020600020905b81548152906001019060200180831161029857829003601f168201915b5050505050908060010180546102ca906110f4565b80601f01602080910402602001604051908101604052809291908181526020018280546102f6906110f4565b80156103435780601f1061031857610100808354040283529160200191610343565b820191906000526020600020905b81548152906001019060200180831161032657829003601f168201915b5050505050908060020154905083565b806000600360003373ffffffffffffffffffffffffffffffffffffffff1673ffffffffffffffffffffffffffffffffffffffff16815260200190815260200160002060008373ffffffffffffffffffffffffffffffffffffffff1673ffffffffffffffffffffffffffffffffffffffff1681526020019081526020016000206000015411610416576040517f08c379a000000000000000000000000000000000000000000000000000000000815260040161040d906111bd565b60405180910390fd5b60001515600360003373ffffffffffffffffffffffffffffffffffffffff1673ffffffffffffffffffffffffffffffffffffffff16815260200190815260200160002060008373ffffffffffffffffffffffffffffffffffffffff1673ffffffffffffffffffffffffffffffffffffffff16815260200190815260200160002060010160009054906101000a900460ff161515146104e9576040517f08c379a00000000000000000000000000000000000000000000000000000000081526004016104e090611229565b60405180910390fd5b6001600360003373ffffffffffffffffffffffffffffffffffffffff1673ffffffffffffffffffffffffffffffffffffffff16815260200190815260200160002060008473ffffffffffffffffffffffffffffffffffffffff1673ffffffffffffffffffffffffffffffffffffffff16815260200190815260200160002060010160006101000a81548160ff0219169083151502179055506000808373ffffffffffffffffffffffffffffffffffffffff1673ffffffffffffffffffffffffffffffffffffffff16815260200190815260200160002060020160008154809291906105d390611278565b919050555060026000808473ffffffffffffffffffffffffffffffffffffffff1673ffffffffffffffffffffffffffffffffffffffff16815260200190815260200160002060020154111561062c5761062b82610b4f565b5b7fe7747c1468ca696f832f20cb4db5f557554916e9035754b5b071c3b04a4decb8823360405161065d9291906112c0565b60405180910390a15050565b6000600280549050905090565b600060606000600360008573ffffffffffffffffffffffffffffffffffffffff1673ffffffffffffffffffffffffffffffffffffffff16815260200190815260200160002060008673ffffffffffffffffffffffffffffffffffffffff1673ffffffffffffffffffffffffffffffffffffffff16815260200190815260200160002060000154036107425760006040518060400160405280600e81526020017f466972737420507572636861736500000000000000000000000000000000000081525091509150610858565b60011515600360008573ffffffffffffffffffffffffffffffffffffffff1673ffffffffffffffffffffffffffffffffffffffff16815260200190815260200160002060008673ffffffffffffffffffffffffffffffffffffffff1673ffffffffffffffffffffffffffffffffffffffff16815260200190815260200160002060010160009054906101000a900460ff1615150361081b5760006040518060400160405280601081526020017f416c7265616479205265706f727465640000000000000000000000000000000081525091509150610858565b60016040518060400160405280600681526020017f5265706f72740000000000000000000000000000000000000000000000000000815250915091505b9250929050565b60008060003373ffffffffffffffffffffffffffffffffffffffff1673ffffffffffffffffffffffffffffffffffffffff16815260200190815260200160002060000180546108ad906110f4565b80601f01602080910402602001604051908101604052809291908181526020018280546108d9906110f4565b80156109265780601f106108fb57610100808354040283529160200191610926565b820191906000526020600020905b81548152906001019060200180831161090957829003601f168201915b505050505090506000815114610971576040517f08c379a00000000000000000000000000000000000000000000000000000000081526004016109689061135b565b60405180910390fd5b826000151560018260405161098691906113b7565b908152602001604051809103902060009054906101000a900460ff161515146109e4576040517f08c379a00000000000000000000000000000000000000000000000000000000081526004016109db9061141a565b60405180910390fd5b6002339080600181540180825580915050600190039060005260206000200160009091909190916101000a81548173ffffffffffffffffffffffffffffffffffffffff021916908373ffffffffffffffffffffffffffffffffffffffff160217905550604051806060016040528085815260200184815260200160008152506000803373ffffffffffffffffffffffffffffffffffffffff1673ffffffffffffffffffffffffffffffffffffffff1681526020019081526020016000206000820151816000019081610ab691906115e6565b506020820151816001019081610acc91906115e6565b506040820151816002015590505060018085604051610aeb91906113b7565b908152602001604051809103902060006101000a81548160ff0219169083151502179055507fe6fbc010725b0b71430339ac30f684b21c0b685f04c99a05b107206a8c63a1fa3385604051610b419291906116b8565b60405180910390a150505050565b60016000808373ffffffffffffffffffffffffffffffffffffffff1673ffffffffffffffffffffffffffffffffffffffff168152602001908152602001600020600001604051610b9f919061176b565b908152602001604051809103902060006101000a81549060ff02191690557f8a36be64cb775ce9b5064fb7f6e835793bfff4f4a873dee5d16268132033852f816000808473ffffffffffffffffffffffffffffffffffffffff1673ffffffffffffffffffffffffffffffffffffffff168152602001908152602001600020600001604051610c2e929190611806565b60405180910390a150565b6000604051905090565b600080fd5b600080fd5b6000819050919050565b610c6081610c4d565b8114610c6b57600080fd5b50565b600081359050610c7d81610c57565b92915050565b600060208284031215610c9957610c98610c43565b5b6000610ca784828501610c6e565b91505092915050565b600073ffffffffffffffffffffffffffffffffffffffff82169050919050565b6000610cdb82610cb0565b9050919050565b610ceb81610cd0565b82525050565b6000602082019050610d066000830184610ce2565b92915050565b610d1581610cd0565b8114610d2057600080fd5b50565b600081359050610d3281610d0c565b92915050565b60008060408385031215610d4f57610d4e610c43565b5b6000610d5d85828601610d23565b9250506020610d6e85828601610d23565b9150509250929050565b610d8181610c4d565b82525050565b60008115159050919050565b610d9c81610d87565b82525050565b6000604082019050610db76000830185610d78565b610dc46020830184610d93565b9392505050565b600060208284031215610de157610de0610c43565b5b6000610def84828501610d23565b91505092915050565b600081519050919050565b600082825260208201905092915050565b60005b83811015610e32578082015181840152602081019050610e17565b60008484015250505050565b6000601f19601f8301169050919050565b6000610e5a82610df8565b610e648185610e03565b9350610e74818560208601610e14565b610e7d81610e3e565b840191505092915050565b60006060820190508181036000830152610ea28186610e4f565b90508181036020830152610eb68185610e4f565b9050610ec56040830184610d78565b949350505050565b6000602082019050610ee26000830184610d78565b92915050565b6000604082019050610efd6000830185610d93565b8181036020830152610f0f8184610e4f565b90509392505050565b600080fd5b600080fd5b7f4e487b7100000000000000000000000000000000000000000000000000000000600052604160045260246000fd5b610f5a82610e3e565b810181811067ffffffffffffffff82111715610f7957610f78610f22565b5b80604052505050565b6000610f8c610c39565b9050610f988282610f51565b919050565b600067ffffffffffffffff821115610fb857610fb7610f22565b5b610fc182610e3e565b9050602081019050919050565b82818337600083830152505050565b6000610ff0610feb84610f9d565b610f82565b90508281526020810184848401111561100c5761100b610f1d565b5b611017848285610fce565b509392505050565b600082601f83011261103457611033610f18565b5b8135611044848260208601610fdd565b91505092915050565b6000806040838503121561106457611063610c43565b5b600083013567ffffffffffffffff81111561108257611081610c48565b5b61108e8582860161101f565b925050602083013567ffffffffffffffff8111156110af576110ae610c48565b5b6110bb8582860161101f565b9150509250929050565b7f4e487b7100000000000000000000000000000000000000000000000000000000600052602260045260246000fd5b6000600282049050600182168061110c57607f821691505b60208210810361111f5761111e6110c5565b5b50919050565b7f596f7520617265207265706f7274696e672061206272616e642062757420796f60008201527f7520646f6e742774206f776e20616e79206f6620697427732070726f6475637460208201527f7300000000000000000000000000000000000000000000000000000000000000604082015250565b60006111a7604183610e03565b91506111b282611125565b606082019050919050565b600060208201905081810360008301526111d68161119a565b9050919050565b7f596f752063616e2774207265706f72742061206272616e642074776963650000600082015250565b6000611213601e83610e03565b915061121e826111dd565b602082019050919050565b6000602082019050818103600083015261124281611206565b9050919050565b7f4e487b7100000000000000000000000000000000000000000000000000000000600052601160045260246000fd5b600061128382610c4d565b91507fffffffffffffffffffffffffffffffffffffffffffffffffffffffffffffffff82036112b5576112b4611249565b5b600182019050919050565b60006040820190506112d56000830185610ce2565b6112e26020830184610ce2565b9392505050565b7f4f776e6572206861732061206272616e64206f6e207468652073616d6520616360008201527f636f756e74000000000000000000000000000000000000000000000000000000602082015250565b6000611345602583610e03565b9150611350826112e9565b604082019050919050565b6000602082019050818103600083015261137481611338565b9050919050565b600081905092915050565b600061139182610df8565b61139b818561137b565b93506113ab818560208601610e14565b80840191505092915050565b60006113c38284611386565b915081905092915050565b7f4272616e64204e616d6520416c72656164792045786973747300000000000000600082015250565b6000611404601983610e03565b915061140f826113ce565b602082019050919050565b60006020820190508181036000830152611433816113f7565b9050919050565b60008190508160005260206000209050919050565b60006020601f8301049050919050565b600082821b905092915050565b60006008830261149c7fffffffffffffffffffffffffffffffffffffffffffffffffffffffffffffffff8261145f565b6114a6868361145f565b95508019841693508086168417925050509392505050565b6000819050919050565b60006114e36114de6114d984610c4d565b6114be565b610c4d565b9050919050565b6000819050919050565b6114fd836114c8565b611511611509826114ea565b84845461146c565b825550505050565b600090565b611526611519565b6115318184846114f4565b505050565b5b818110156115555761154a60008261151e565b600181019050611537565b5050565b601f82111561159a5761156b8161143a565b6115748461144f565b81016020851015611583578190505b61159761158f8561144f565b830182611536565b50505b505050565b600082821c905092915050565b60006115bd6000198460080261159f565b1980831691505092915050565b60006115d683836115ac565b9150826002028217905092915050565b6115ef82610df8565b67ffffffffffffffff81111561160857611607610f22565b5b61161282546110f4565b61161d828285611559565b600060209050601f831160018114611650576000841561163e578287015190505b61164885826115ca565b8655506116b0565b601f19841661165e8661143a565b60005b8281101561168657848901518255600182019150602085019450602081019050611661565b868310156116a3578489015161169f601f8916826115ac565b8355505b6001600288020188555050505b505050505050565b60006040820190506116cd6000830185610ce2565b81810360208301526116df8184610e4f565b90509392505050565b600081546116f5816110f4565b6116ff818661137b565b9450600182166000811461171a576001811461172f57611762565b60ff1983168652811515820286019350611762565b6117388561143a565b60005b8381101561175a5781548189015260018201915060208101905061173b565b838801955050505b50505092915050565b600061177782846116e8565b915081905092915050565b6000815461178f816110f4565b6117998186610e03565b945060018216600081146117b457600181146117ca576117fd565b60ff1983168652811515602002860193506117fd565b6117d38561143a565b60005b838110156117f5578154818901526001820191506020810190506117d6565b808801955050505b50505092915050565b600060408201905061181b6000830185610ce2565b818103602083015261182d8184611782565b9050939250505056fea2646970667358221220fed17816b2c3744d526b615817bcabde0a78abbd96f071d1a5086eadc54c286364736f6c63430008130033",
  "immutableReferences": {},
  "source": "// SPDX-License-Identifier: MIT\r\npragma solidity ^0.8.0;\r\nimport './Brand.sol';\r\n\r\ncontract Report is Brand {\r\n    struct ReportData {\r\n        uint256 productCount; // keeps the count of products of a particular brand a user has\r\n        bool hasReported;\r\n    }\r\n    event brandReported(address _brandOwner, address _reportedBy);\r\n    event brandReportRevoved(address _brandOwner, address _revokedBy);\r\n\r\n    mapping(address => mapping(address => ReportData)) public userBrand; // [user][brand] => details\r\n\r\n    modifier canReport(address _brandOwner) {\r\n        require(\r\n            userBrand[msg.sender][_brandOwner].productCount > 0,\r\n            \"You are reporting a brand but you dont't own any of it's products\"\r\n        );\r\n        require(\r\n            userBrand[msg.sender][_brandOwner].hasReported == false,\r\n            \"You can't report a brand twice\"\r\n        );\r\n        _;\r\n    }\r\n\r\n    function reportBrand(address _brandOwner) public canReport(_brandOwner) {\r\n        userBrand[msg.sender][_brandOwner].hasReported = true;\r\n        brands[_brandOwner].reports++;\r\n        if (brands[_brandOwner].reports > 2) deleteBrand(_brandOwner); // 2 is there ony to ease testing (will be increased in future)\r\n        emit brandReported(_brandOwner, msg.sender);\r\n    }\r\n\r\n    function revokeReport(address _brandOwner, address _revokedBy) internal {\r\n        brands[_brandOwner].reports--;\r\n        emit brandReportRevoved(_brandOwner, _revokedBy);\r\n    }\r\n\r\n    function canIReport(address _brandOwner, address _caller)\r\n        public\r\n        view\r\n        returns (bool canI, string memory reason)\r\n    {\r\n        if (userBrand[_caller][_brandOwner].productCount == 0)\r\n            return (false, 'First Purchase');\r\n        if (userBrand[_caller][_brandOwner].hasReported == true)\r\n            return (false, 'Already Reported');\r\n        return (true, 'Report');\r\n    }\r\n}\r\n",
  "sourcePath": "C:\\Users\\Madhukesh Singh\\Desktop\\BuySafe\\contracts\\Report.sol",
  "compiler": {
    "name": "solc",
    "version": "0.8.19+commit.7dd6d404.Emscripten.clang"
  },
  "schemaVersion": "3.4.13",
  "updatedAt": "2023-03-27T08:25:55.009Z",
  "devdoc": {
    "kind": "dev",
    "methods": {},
    "version": 1
  },
  "userdoc": {
    "kind": "user",
    "methods": {},
    "version": 1
  }
}